{"abi":[{"type":"constructor","inputs":[{"name":"treasury","type":"address","internalType":"address"},{"name":"initialSupply","type":"uint256","internalType":"uint256"}],"stateMutability":"nonpayable"},{"type":"function","name":"allowance","inputs":[{"name":"","type":"address","internalType":"address"},{"name":"","type":"address","internalType":"address"}],"outputs":[{"name":"","type":"uint256","internalType":"uint256"}],"stateMutability":"view"},{"type":"function","name":"approve","inputs":[{"name":"spender","type":"address","internalType":"address"},{"name":"value","type":"uint256","internalType":"uint256"}],"outputs":[{"name":"","type":"bool","internalType":"bool"}],"stateMutability":"nonpayable"},{"type":"function","name":"balanceOf","inputs":[{"name":"","type":"address","internalType":"address"}],"outputs":[{"name":"","type":"uint256","internalType":"uint256"}],"stateMutability":"view"},{"type":"function","name":"decimals","inputs":[],"outputs":[{"name":"","type":"uint8","internalType":"uint8"}],"stateMutability":"view"},{"type":"function","name":"mint","inputs":[{"name":"to","type":"address","internalType":"address"},{"name":"amount","type":"uint256","internalType":"uint256"}],"outputs":[],"stateMutability":"nonpayable"},{"type":"function","name":"name","inputs":[],"outputs":[{"name":"","type":"string","internalType":"string"}],"stateMutability":"view"},{"type":"function","name":"owner","inputs":[],"outputs":[{"name":"","type":"address","internalType":"address"}],"stateMutability":"view"},{"type":"function","name":"symbol","inputs":[],"outputs":[{"name":"","type":"string","internalType":"string"}],"stateMutability":"view"},{"type":"function","name":"totalSupply","inputs":[],"outputs":[{"name":"","type":"uint256","internalType":"uint256"}],"stateMutability":"view"},{"type":"function","name":"transfer","inputs":[{"name":"to","type":"address","internalType":"address"},{"name":"value","type":"uint256","internalType":"uint256"}],"outputs":[{"name":"","type":"bool","internalType":"bool"}],"stateMutability":"nonpayable"},{"type":"function","name":"transferFrom","inputs":[{"name":"from","type":"address","internalType":"address"},{"name":"to","type":"address","internalType":"address"},{"name":"value","type":"uint256","internalType":"uint256"}],"outputs":[{"name":"","type":"bool","internalType":"bool"}],"stateMutability":"nonpayable"},{"type":"function","name":"transferOwnership","inputs":[{"name":"newOwner","type":"address","internalType":"address"}],"outputs":[],"stateMutability":"nonpayable"},{"type":"event","name":"Approval","inputs":[{"name":"owner","type":"address","indexed":true,"internalType":"address"},{"name":"spender","type":"address","indexed":true,"internalType":"address"},{"name":"value","type":"uint256","indexed":false,"internalType":"uint256"}],"anonymous":false},{"type":"event","name":"OwnershipTransferred","inputs":[{"name":"previousOwner","type":"address","indexed":true,"internalType":"address"},{"name":"newOwner","type":"address","indexed":true,"internalType":"address"}],"anonymous":false},{"type":"event","name":"Transfer","inputs":[{"name":"from","type":"address","indexed":true,"internalType":"address"},{"name":"to","type":"address","indexed":true,"internalType":"address"},{"name":"value","type":"uint256","indexed":false,"internalType":"uint256"}],"anonymous":false}],"bytecode":{"object":"0x608060405234801561000f575f80fd5b5060405161095638038061095683398101604081905261002e91610102565b600180546001600160a01b0319163317905561004a8282610051565b505061015e565b6001600160a01b03821661009a5760405162461bcd60e51b815260206004820152600c60248201526b6d696e7420746f207a65726f60a01b604482015260640160405180910390fd5b805f808282546100aa9190610139565b90915550506001600160a01b0382165f818152600260209081526040808320805486019055518481527fddf252ad1be2c89b69c2b068fc378daa952ba7f163c4a11628f55a4df523b3ef910160405180910390a35050565b5f8060408385031215610113575f80fd5b82516001600160a01b0381168114610129575f80fd5b6020939093015192949293505050565b8082018082111561015857634e487b7160e01b5f52601160045260245ffd5b92915050565b6107eb8061016b5f395ff3fe608060405234801561000f575f80fd5b50600436106100b1575f3560e01c806370a082311161006e57806370a082311461016a5780638da5cb5b1461018957806395d89b41146101b4578063a9059cbb146101d8578063dd62ed3e146101eb578063f2fde38b14610215575f80fd5b806306fdde03146100b5578063095ea7b3146100ef57806318160ddd1461011257806323b872dd14610128578063313ce5671461013b57806340c10f1914610155575b5f80fd5b6100d960405180604001604052806005815260200164487964726f60d81b81525081565b6040516100e69190610662565b60405180910390f35b6101026100fd3660046106c9565b610228565b60405190151581526020016100e6565b61011a5f5481565b6040519081526020016100e6565b6101026101363660046106f1565b610294565b610143601281565b60405160ff90911681526020016100e6565b6101686101633660046106c9565b610351565b005b61011a61017836600461072a565b60026020525f908152604090205481565b60015461019c906001600160a01b031681565b6040516001600160a01b0390911681526020016100e6565b6100d960405180604001604052806005815260200164485944524f60d81b81525081565b6101026101e63660046106c9565b6103a5565b61011a6101f936600461074a565b600360209081525f928352604080842090915290825290205481565b61016861022336600461072a565b6103ba565b335f8181526003602090815260408083206001600160a01b038716808552925280832085905551919290917f8c5be1e5ebec7d5bd14f71427d1e84f3dd0314c0f7b2291e5b200ac8c7c3b925906102829086815260200190565b60405180910390a35060015b92915050565b6001600160a01b0383165f9081526003602090815260408083203384529091528120545f19811461033b578281101561030d5760405162461bcd60e51b8152602060048201526016602482015275696e73756666696369656e7420616c6c6f77616e636560501b60448201526064015b60405180910390fd5b610317838261078f565b6001600160a01b0386165f9081526003602090815260408083203384529091529020555b6103468585856104a0565b506001949350505050565b6001546001600160a01b031633146103975760405162461bcd60e51b81526020600482015260096024820152683737ba1037bbb732b960b91b6044820152606401610304565b6103a182826105b5565b5050565b5f6103b13384846104a0565b50600192915050565b6001546001600160a01b031633146104005760405162461bcd60e51b81526020600482015260096024820152683737ba1037bbb732b960b91b6044820152606401610304565b6001600160a01b0381166104455760405162461bcd60e51b815260206004820152600c60248201526b7a65726f206164647265737360a01b6044820152606401610304565b6001546040516001600160a01b038084169216907f8be0079c531659141344cd1fd0a4f28419497f9722a3daafe3b4186f6b6457e0905f90a3600180546001600160a01b0319166001600160a01b0392909216919091179055565b6001600160a01b0382166104e95760405162461bcd60e51b815260206004820152601060248201526f7472616e7366657220746f207a65726f60801b6044820152606401610304565b6001600160a01b0383165f90815260026020526040902054818110156105485760405162461bcd60e51b8152602060048201526014602482015273696e73756666696369656e742062616c616e636560601b6044820152606401610304565b6001600160a01b038085165f8181526002602052604080822086860390559286168082529083902080548601905591517fddf252ad1be2c89b69c2b068fc378daa952ba7f163c4a11628f55a4df523b3ef906105a79086815260200190565b60405180910390a350505050565b6001600160a01b0382166105fa5760405162461bcd60e51b815260206004820152600c60248201526b6d696e7420746f207a65726f60a01b6044820152606401610304565b805f8082825461060a91906107a2565b90915550506001600160a01b0382165f818152600260209081526040808320805486019055518481527fddf252ad1be2c89b69c2b068fc378daa952ba7f163c4a11628f55a4df523b3ef910160405180910390a35050565b5f602080835283518060208501525f5b8181101561068e57858101830151858201604001528201610672565b505f604082860101526040601f19601f8301168501019250505092915050565b80356001600160a01b03811681146106c4575f80fd5b919050565b5f80604083850312156106da575f80fd5b6106e3836106ae565b946020939093013593505050565b5f805f60608486031215610703575f80fd5b61070c846106ae565b925061071a602085016106ae565b9150604084013590509250925092565b5f6020828403121561073a575f80fd5b610743826106ae565b9392505050565b5f806040838503121561075b575f80fd5b610764836106ae565b9150610772602084016106ae565b90509250929050565b634e487b7160e01b5f52601160045260245ffd5b8181038181111561028e5761028e61077b565b8082018082111561028e5761028e61077b56fea2646970667358221220e0fe6a4d54b0262d036d82496988c16c173526657fc6d7a098b3b3ef46afb1c764736f6c63430008180033","linkReferences":{}},"methodIdentifiers":{"allowance(address,address)":"dd62ed3e","approve(address,uint256)":"095ea7b3","balanceOf(address)":"70a08231","decimals()":"313ce567","mint(address,uint256)":"40c10f19","name()":"06fdde03","owner()":"8da5cb5b","symbol()":"95d89b41","totalSupply()":"18160ddd","transfer(address,uint256)":"a9059cbb","transferFrom(address,address,uint256)":"23b872dd","transferOwnership(address)":"f2fde38b"},"id":0}